:10000000B015002035010000310100003101000071
:1000100000000000000000000000000000000000E0
:10002000000000000000000000000000310100009E
:10003000000000000000000031010000310100005C
:1000400031010000310100003101000031010000E8
:1000500031010000310100003101000031010000D8
:1000600031010000310100003101000031010000C8
:10007000310100003101000031010000050F0000D6
:1000800031010000310100003101000031010000A8
:100090003101000031010000310100003101000098
:1000A0003101000031010000310100003101000088
:1000B00031010000310100003101000010B5064C93
:1000C0002378002B07D1054B002B02D0044800E019
:1000D00000BF0123237010BD780000200000000045
:1000E0007C400000084B10B5002B03D0074908489E
:1000F00000E000BF07480368002B00D110BD064B8D
:10010000002BFBD09847F9E7000000007C0000209E
:100110007C4000007C4000000000000010B5024B55
:100120009847024B984710BDC5050000B515000063
:100130007047000010B5174A174B9A4211D01A00A9
:10014000164B9A420DD2164A03339B1A9B08013371
:100150009B00002210480F498C58845004329A4268
:10016000FAD1104A104B9A420AD2D3430E495B1877
:1001700003218B4304339B18002102C29342FCD11C
:100180000A4AFF210A4B8B4393600A4B98470A4B5C
:100190009847FEE77C400000000000207800002027
:1001A0000400002078000020B005002000ED00E0F1
:1001B00000000000052D0000F1130000F0B5DE4640
:1001C00057464E464546E0B583B0C024E4050423B7
:1001D00063608223DB05894A9A62C0200006986228
:1001E00042269D5D01218D4301221543EDB29D55AF
:1001F00031255E5D223DA946AE431643F6B2223557
:100200005E55102666607E4E9E6298624427DE5DD3
:100210008E431643F6B2DE550135A8465E5D4D4667
:10022000AE431643F6B245465E5520266660754ECF
:100230009E6298620137DE5D8E431643F6B2DE554C
:100240005E5D363F3E401025AB4635005E46354389
:100250006E46F571F579AC46454666465E550E35F7
:100260006560694D9D6298624625A8465D5D8D4337
:1002700015436E46F571F579AC46454666465E55C2
:10028000133DA8465D5D4E46B54315436E46F57178
:10029000F579AC46454666465E554D3565605B4D25
:1002A0009D6298624725AA465D5D8D4315436E4663
:1002B000F571F579AC46554666465E5545465D5D39
:1002C0003D405E4635436E46F571F579AC46454690
:1002D00066465E55CD3565604D4D9D6298624825F8
:1002E000A8465D5D8D4315436E46F571F579AC46C4
:1002F000454666465E55143DA8465D5D4E46B5438F
:1003000015436E46F571F579AC46454666465E5531
:10031000CD35FF3565603F4D9D6298624925AA46FF
:100320005D5D8D4315436E46F571F579AC465546D6
:1003300066465E5545465D5D3D405E4635436E46CC
:10034000F571F579AC46454666465E558025ED006B
:100350006560314D9D6298624A25A8465D5D8D437A
:1003600015436E46F571F579AC46454666465E55D1
:10037000153DA8465D5D4E46B54315436E46F57185
:10038000F579AC46454666465E5580252D0165608B
:10039000224D9D6298624B25A9465D5D8D431543B4
:1003A0006E46F571F579AC464D4666465E55454656
:1003B0005D5D3D405E4635436E46F571F579AC4670
:1003C000454666465E552D3D6560154C9C629862BB
:1003D0004324185D884301001143C9B219553122E5
:1003E0009A5C3A4059460A43D2B231215A5403B07A
:1003F0003CBC90469946A246AB46F0BD0400004086
:1004000010000040200000404000004080000040FC
:1004100000010040000200400004004000080040CD
:1004200008000040054AD16980239B020B43D36139
:10043000412182235B00024AD150704700080040EE
:10044000001C004010B5064B9847064B9847064BDA
:100450009847020005490648064B984710BDC0461C
:1004600025040000BD010000E50D0000004400422D
:10047000FC0000206107000030B58223DB0550221C
:10048000995C0125A94301242143C9B2995438201C
:10049000195C413A91430C3A1143195451215A5C69
:1004A000AA432243D2B25A541A5C42390A4021313B
:1004B0000A431A5430BD0000064B4021D8229950FF
:1004C0000231103A9950044AD36932390B43D3614F
:1004D0007047C046001C00400008004010B5054BA6
:1004E0009847002204490548054B9847054B984713
:1004F00010BDC046B90400000010004200010020F9
:10050000D10A00007904000030B58223DB05D72230
:10051000995C0125A94301242143C9B29954BB2008
:10052000195CC83A1140513211431954D6215A5C12
:10053000AA432243D2B25A541A5CC7398A430939B2
:100540000A431A5430BD000010B5084A11698023CF
:100550005B000B4313614021E823054AD150054954
:100560000548064B9847064B984710BD00080040C9
:10057000001C0040001C0042D0000020A508000024
:1005800009050000054A516980235B010B43536153
:1005900041219423024AD1507047C04600080040D0
:1005A000001C004010B5034B984703490348044B17
:1005B000984710BD8505000000300040F80000207D
:1005C0005D090000F8B5544B9847C022D2050121BF
:1005D00051608223DB0551489862514F9F62516000
:1005E00040201C5C042504263443E4B21C545161B1
:1005F0001C5C8C431C548020400184465060494858
:1006000098629F62604650604C201C5C3443E4B2A8
:100610001C54644694611C5C8C431C5480208001F3
:1006200084465060404898629F62604650604D2406
:10063000185D3043C0B2185560469061185D88431C
:1006400018558020C0025060384C9C62384898622F
:1006500052201E5CAE431E541E5C8E431E548020EE
:10066000000350609C623348986253201E5CAE4386
:100670001E541E5C8E431E548020400350609C62BA
:100680002D48986254201C5CAC431C541C5C8C4369
:100690001C5480208003506190608020C0059862C7
:1006A000264C9C6251355C5D8C435C558024E40390
:1006B000946194609862224C9C6201355C5D8C432D
:1006C0005C55802424045461946098621D4C9C62A3
:1006D00001355C5D8C435C558024240594619460F5
:1006E0009862194C9C6204355C5D8C435C55802497
:1006F0006405946194609862144A9A625C201A5C62
:100700008A431A54124B9847124B9847124B9847FA
:10071000124B9847F8BDC046710F0000010002401F
:10072000000002C000100240002002400000024011
:10073000040002C0080002C0100002C0200000C077
:10074000400000C0800000C0000800C0001000C0D1
:1007500045040000DD04000049050000A505000077
:1007600070B504000D0000280CD00800431E98410D
:10077000C0B239220449054B984729002000044B98
:10078000984770BD0020F4E7143E0000490B0000BC
:10079000290D000070B504000D00431E9841C0B241
:1007A0004E220449044B984729002000034B9847E8
:1007B000002070BD143E0000490B0000610D0000D8
:1007C000F0B5DE4657464E464546E0B583B00600D6
:1007D0000D009146019300281ED0002A1ED018005B
:1007E000431E984167221F491F4FB847340030000D
:1007F0001E4B98470100804601981D4B9847484280
:100800004841C0B269221749B8470027194B9B4697
:10081000194E1A4B9A4608E00020E3E70020E1E772
:100820004744BFB2019BBB4213D92000D8472900DF
:100830002000B0470028FAD029002000D0474B46BE
:10084000D8554346012BEBD94B46DB19000A5870AB
:10085000E6E7380003B03CBC90469946A246AB465A
:10086000F0BDC046143E0000490B0000750D0000AD
:10087000F90F0000910D0000870D0000A30D00008E
:1008800010B5C369002B00D0984710BD10B5036A9E
:10089000002B00D0984710BD10B5436A002B00D044
:1008A000984710BD70B505000C00002814D0080052
:1008B000431E9841C0B241220849094B9847210084
:1008C0002800084B9847002805D1074B6B60074B61
:1008D000AB60074BEB6070BD0020ECE7303E0000E2
:1008E000490B0000E90D0000810800008D080000A0
:1008F0009908000070B506000C00150000280DD006
:100900000800431E9841C0B234220549054B984760
:1009100033682A0021003000984770BD0020F3E7BB
:100920004C3E0000490B000070B506000C0015009D
:1009300000280DD00800431E9841C0B23D22054951
:10094000054B984773682A0021003000984770BD16
:100950000020F3E74C3E0000490B000070B5040096
:100960000D0000280CD00800431E9841C0B22B2275
:100970000449054B984729002000044B984770BD57
:100980000020F4E7603E0000490B00001112000057
:1009900010B50400431E9841C0B23D220349044BE8
:1009A00098472000034B984710BDC046603E0000AA
:1009B000490B0000C512000070B504000D000028AE
:1009C0000CD00800431E9841C0B24F220449054B89
:1009D000984729002000044B984770BD0020F4E799
:1009E000603E0000490B0000DB120000F8B5CE4667
:1009F000474680B504000F009046002826D0002905
:100A000026D01000431E9841F1221249124B9847FC
:100A10000834124D2000A8470028FBD00026104BB8
:100A200099460E4DB95D2000C8472000A847002810
:100A3000FBD001364645F5D30A4D2000A8470028D3
:100A4000FBD030000CBC90469946F8BD0020DBE797
:100A50000020D9E77C3E0000490B0000F1110000A6
:100A6000E1110000FB110000F8B5CE46474680B505
:100A700004000F00904600281DD000291DD0100052
:100A8000431E9841862252000D490E4B984700267E
:100A900008340D4D0D4B99462000A8470028FBD087
:100AA0002000C847B85501364645F5D330000CBC88
:100AB00090469946F8BD0020E4E70020E2E7C046F2
:100AC0007C3E0000490B000005120000E911000007
:100AD00070B505000C00002813D00800431E984193
:100AE000C0B234220849094B984728000830210039
:100AF000074B9847002803D1064B6B60064B2B60D1
:100B000070BD0020EDE7C0467C3E0000490B0000B0
:100B1000A1110000690A0000ED09000010B50400F1
:100B2000431E9841C0B253220449054B9847200008
:100B30000830044B9847002010BDC0467C3E0000A2
:100B4000490B0000CD110000002800D100BE704705
:100B50000300064A1268002A04D0044A1068C31829
:100B6000136070470249014A1160F6E794000020C3
:100B7000B015002001204042704780239B014B604C
:100B800000207047012070470020704710B5574B78
:100B9000984200D195E0564B0024984200D19AE04B
:100BA000038CDB0718D40322038C1342FCD1037897
:100BB0009B070BD503780222934303700132038C09
:100BC0001342FCD10222038C1342FCD10123037097
:100BD0000322038C1342FCD10122038C1342FCD16B
:100BE0008485CA00521A9200424B9B189A78427030
:100BF000DA7882701A79C270DB880381038C5B0516
:100C0000FCD1CB005B1A9B003A4AD3181B89438165
:100C1000038C5B05FCD1CB005B1A9B00354AD318D3
:100C20009B7A0373038C5B05FCD1CB005B1A9B00A2
:100C3000304AD318DB7A4373038C5B05FCD1CB00BD
:100C40005B1A9B002B4AD3189B89C3814022038CDB
:100C50001342FCD1CB005B1A9B00264AD318DB89D8
:100C600003828022038C1342FCD1CB005B1A9B00D1
:100C7000204AD3181B8A438280225200038C1342DD
:100C8000FCD1CB005B1A9B001A4AD3185B8A838283
:100C900080229200038C1342FCD1164CCB005A1ACE
:100CA0009200A218127D027700228262591A8900EE
:100CB00061184B7803700332038C1342FCD100207F
:100CC00010BD0D4B1B681C02E022D20014409B0695
:100CD0005B0F1C4364E7084B1B689C00E022D200BA
:100CE00014401B055B0F1C435AE7C04600440042FA
:100CF00000480042983E00002060800010B5074B7D
:100D00009C466044800AC0B2002804D08D22044969
:100D10000020044B9847002010BDC04600BCFFBD1A
:100D2000B43E0000490B000070B505000C00431EE6
:100D30009841C0B2DD220649064B98472C6020003E
:100D4000054B984701002000044B984770BDC046F2
:100D5000B43E0000490B0000FD0C00008D0B0000AC
:100D60000268137802210B4313700131138C0B427C
:100D7000FCD17047036858898006800F0338431EF2
:100D800098410130704703689879012318407047F3
:100D90000268137E02210B431376138C5B05FCD192
:100DA00070470368988C80B27047000030B50468C3
:100DB00023891F25AB43294019432181238C5B05DF
:100DC000FCD101680B89064803401202F82040015B
:100DD00002401A430A810B8C5B05FCD130BDC04632
:100DE000FFE0FFFF00207047F0B501608B69012232
:100DF00013438B610268012493691C42FCD0936900
:100E0000022423439361374B994210D002689369BF
:100E100002218B4393610268936901398B4393618B
:100E2000016801228B691A42FCD10020F0BD2E4BD3
:100E30001A0001C22D4981610468A5698021490019
:100E40002943A16104680021A1600468284DE5617F
:100E50000468284DE560284C2404240C80256D038B
:100E60002C43A02506687451993DBC240668355171
:100E70000C3405682951214C2404240C8025AD0430
:100E80002C43C025066874511204120C8024A4025D
:100E90002243303506687251703D2822066872512F
:100EA0001A0014321204120C224384260768BA5125
:100EB0001C331B041B0C234388220468A35090237B
:100EC0000268D1500E4B802212025A51BFF34F8F4D
:100ED000BFF36F8F8131FF315A501A6003680122CE
:100EE000DA6593E7001C0042980000200000002013
:100EF000070A0206330A00000C0100208C050020BE
:100F000000E100E070B5194B1D682B681C6DE3070C
:100F100014D4A30516D4A30118D4E3011BD42302CF
:100F200007D52B68596C8906C90F01312800EB6879
:100F30009847230714D42B681C6570BD2800AB6844
:100F40009847E6E728006B689847E4E70321280004
:100F5000EB689847E1E700212800EB689847DEE757
:100F600004212800EB689847E5E7C0469800002078
:100F700010B5094A536802210B435360074B984749
:100F8000074B9847074B9847074B9847FF20074B5D
:100F90009847074B984710BD00400041C91000001A
:100FA000E1100000BD1000000111000069100000F8
:100FB000B50F00009022D205137802218B431370E5
:100FC000704710B582B0EFF31083019372B690238F
:100FD000DB051A780124A2431A709860D9601A00C0
:100FE0001379DB07FCD49023DB051869019B83F39D
:100FF000108802B010BD000010B582B0EFF310836E
:10100000019372B69023DB051A78012422431A70EB
:101010009860D9601A001379DB07FCD4034B186879
:101020005968019B83F3108802B010BD100000487E
:1010300010B582B0EFF31083019372B69023DB05F5
:101040001A780124A2431A709860D9601A001379A3
:10105000DB07FCD4034B18685968019B83F31088A5
:1010600002B010BD10000048C30707D50E4A0F4B51
:101070001A6219000E4A4B681342FCD1830707D548
:101080000C4A0A4B5A621900094A4B681342FCD1B8
:10109000430707D5084A054B9A621900044A4B6872
:1010A0001342FCD17047C04600010100001C004003
:1010B000FD07000000011E0000010A000122014B93
:1010C0001A71704700080040044BDA69F8214901A1
:1010D0000A40DA6101221A617047C04600140040DC
:1010E000054B064A1A820022DA7419000132CB68D5
:1010F0001A42FCD07047C0460010004042C0FFFFBB
:101100007047000010B504001F4BC3189B0ADBB2E8
:10111000032B04D01D4A1E4900201E4B9847E3694B
:10112000DB0718D40322E3691A42FCD123689B072A
:101130000BD523680222934323600132E3691A42EC
:10114000FCD10222E3691A42FCD105232360032269
:10115000E3691A42FCD10122E3691A42FCD10E4B29
:1011600023600322E3691A42FCD1C0239B0263601F
:101170000722E3691A42FCD1084BA3810023A37321
:101180003022A354002010BD00FCFFBD3A02000035
:10119000CC3E0000490B00000400104045F0FFFF6A
:1011A00070B505000C00431E9841C0B2B42204493A
:1011B000044B98472C602000034B984770BDC046F5
:1011C000CC3E0000490B00000511000002681368C6
:1011D00002210B4313600131D3691942FCD17047DE
:1011E000036889B2198570470368188DC0B27047CB
:1011F0000368187E0123184070470368187E800733
:10120000C00F70470368187E4007C00F704700008A
:1012100070B505000C008B68DB072DD50122A36893
:101220001A42FCD121490B681A02FC2080010240BD
:101230001B059B0E134323621D4E33681805F023D4
:101240001B0418400B681B0B18431A4B98471A498C
:101250001A4B98471A4B9847A06133681B011B0A29
:10126000E3612C60002323700322A3681A42FCD19F
:101270000023A370002070BD0322A3681A42FCD192
:1012800023789B070BD523780222934323700132E6
:10129000A3681A42FCD10222A3681A42FCD101239E
:1012A00023700322A3681A42FCD1B7E730608000A4
:1012B00034608000F91B0000ABAAAA3C4116000074
:1012C000D51500000268137802210B431370013119
:1012D00093681942FCD10020704730B5026802249F
:1012E00093681C42FCD10123537003680124082534
:1012F0009A79224207D19A792A42F9D008229A7122
:101300001320404209E0DB681B021A0A002B05DBB0
:101310000A60036801229A71002030BDFF231B067A
:101320001A430A60F5E70000F0B5D64600B588B06C
:1013300004900E0015009A46204B013B002BFCD177
:101340001F4C1822049920001E4FB847002120008E
:101350001D4B984707AF02233A00002120001B4C89
:10136000A0477C7824023B78E4182000184B98476B
:101370000022184B184FB847184B98470700300009
:101380007843174E2900B04716490590B04705002D
:1013900053460293FA2189000598B047FA239B002F
:1013A0006B43C01A019000953B00220004990E483F
:1013B0000E4CA04708B004BC9246F0BDC0D401005A
:1013C000FC000020AD0D000095070000C1070000E3
:1013D0001928000000403F40851C00000516000051
:1013E000C30F000040420F00E83E00005D2D0000EA
:1013F000F0B583B0314B98473148324B9847802243
:10140000520201213048314B9847314B013B002BB0
:10141000FCD13048304B98470026304C304D0AE024
:101420000136002E07D0C023DB05802212049A610A
:10143000802292039A6156230A22FA210020A047B3
:101440005623142238210720A0475623142238217E
:101450000520A0475623142238210820A0475623F0
:10146000142238210620A047FA27FF006D2301220D
:1014700039000A20A0475623142282210420A047C5
:101480005623142282210920A0476D23012239000E
:101490000B20A04701A90F48A847019911480B4B01
:1014A0009847114B013B002BFCD131000F48074BF3
:1014B0009847074B013B002BFCD1B1E71D01000011
:1014C000083F0000512E0000143F00005D2D000079
:1014D000804F1200F800002091090000291300003D
:1014E000B9090000283F0000001BB700343F00008E
:1014F00010B50B00002809D111001800054B9847C2
:10150000002800DB10BD01204042FBE701204042E3
:10151000F8E7C0466D15000010B50B000138022831
:1015200009D811001800054B9847002800DB10BDB2
:1015300001204042FBE701204042F8E791150000FE
:1015400070B50600064D2B6898680021054CA04731
:101550002B6858680021A047034B1E6070BDC04631
:1015600014000020652E0000C400002010B5040007
:10157000054B1868002804D08AB22100034B984715
:1015800010BD0020FCE7C046C4000020290900006F
:1015900010B50400054B1868002804D08AB2210059
:1015A000034B984710BD0020FCE7C046C400002054
:1015B000F508000010B5044C2000044B98472000AB
:1015C000034B984710BDC046000100201D0B0000D2
:1015D000411500009E2110B5C905041C01F0C2F997
:1015E000002803D1201C00F0E7FA10BD9E21201C2A
:1015F000C90500F045F900F0DFFA80231B069C4680
:101600006044F2E770B500220C4B04000D0001F0BD
:101610006FF9002804D12000290001F0C9F870BD3D
:10162000064B00222000290000F0ACFD01F0C0F8BC
:1016300080231B069C466044F1E7C0460000E04161
:10164000F8B557464E464546DE46E0B547024600E9
:1016500088467F0A360EC40F002E47D0FF2E24D0B6
:10166000FB008027FF041F43002399469A467F3ED4
:1016700043465D025800DB0F6D0A000E984643D0CA
:10168000FF283BD0EB0080250022ED041D437F386E
:101690003618731C41469B464B46614013430F2B43
:1016A00064D875489B00C3589F46002F42D1082339
:1016B0009946063BFF269A46DAE74146022A28D099
:1016C000032A00D1CEE0012A00D0ACE01140002076
:1016D0000022CCB24002D205400AE4071043204366
:1016E0003CBC90469946A246AB46F8BD002F15D1AA
:1016F00004239946033B00269A46B9E7FF200222BD
:10170000002DC5D00322C3E7002D19D100200122EE
:10171000BEE70124FF220C400020DBE7380001F087
:101720002BF97626431F9F4000237642361A9946AE
:101730009A469DE70C239946093BFF269A4697E770
:10174000280001F019F9431F9D4076235B42181AC7
:1017500000229DE780200024C003FF22BAE73D005D
:101760005246ABE73D0021005246A7E73B0C9C46A2
:101770002A04120C2B0C1400604665463F043F0CF3
:101780007C4342435D437B43270C9B18FF18BA42BE
:1017900003D980235B029C46654424043A04240C4C
:1017A000121993015C1EA3413F0C920E7D191A433E
:1017B000AD0115432B0104D501235E466A081D4087
:1017C000154332007F32002A25DD6B0704D00F233A
:1017D0002B40042B00D004352B0103D53200274BBE
:1017E00080321D40FE2A94DC0124A801400AD2B2B6
:1017F0000C406FE78020C003074207D0054205D1A7
:1018000028434002400A4446FF2263E7384340022F
:10181000400AFF225EE70124A31A1B2B05DD0C40C2
:101820000022002056E75E46CBE72A002020DA405F
:10183000C31A9D402B005D1EAB4113435A0704D0D1
:101840000F221A40042A00D004335A0104D501247F
:1018500001220C4000203DE701249B01580A0C4066
:10186000002237E780200124C00328434002400AB9
:101870000C40FF222EE7C046443F0000FFFFFFF769
:10188000F0B54F46D64646464400C0B5C20F4702A3
:101890004802400A844666467B0A4800C90F9A46B9
:1018A000240E1500DB00000E8946F600FF2800D14B
:1018B0008FE001214F464F403900914266D0221AF5
:1018C000002A00DC9DE000283DD1002E00D18BE0F5
:1018D000511E002900D0B5E001249B1B5A0144D5BC
:1018E0009B019F09380001F047F805388740844282
:1018F00000DD96E0041B3A0020200134E240041B86
:10190000A7403B005F1EBB41002413435A0704D08D
:101910000F221A40042A00D004335A0127D501347B
:10192000FF2C00D179E001229B015B0AE4B22A403E
:101930005B02E405580AD207204310431CBC9046C2
:101940009946A246F0BDFF2CE0D08021C9040E4389
:101950001B2A7BDC31002020D140821A9640721E67
:1019600096410E439B1B5A01BAD45A07D0D101228B
:10197000DF082A40FF2C33D1002F00D1A8E08023BC
:10198000DB033B435B025B0AFF24D1E7211A0029FA
:101990004CDD00282AD0FF2CB8D08020C00406439C
:1019A0001B2900DDAFE030002027C840791A8E40A7
:1019B000711E8E4106439B195901D6D50134FF2C67
:1019C00000D185E001227A491A405B080B4013439D
:1019D0009CE7002E00D070E76BE73B1EC5D10022CC
:1019E0007B025B0AE4B2A3E714008FE7002E4DD020
:1019F000481E002857D19B1901245A01B5D502244D
:101A0000E0E7002A25D1621CD2B2012A72DD9F1BB9
:101A10007A0135D5F71A0D0064E7012200232A4028
:101A200086E73B00634A241A13406FE700296CD114
:101A3000611CC8B201284EDDFF2949D09B195B0803
:101A40000C0063E7FF2A41D00A0081E701269B1BB7
:101A500089E7002C1CD0FF2821D08024E4045242C6
:101A600023431B2A00DD96E01C002025D440AA1A3F
:101A700093405A1E93412343F31A04000D002DE7AF
:101A8000002F00D02EE700220024A9E70C003DE73C
:101A9000002B58D0D243002AEED0FF28E1D13300EA
:101AA000FF240D0032E7FF2910D0010078E7002B5A
:101AB0006ED0FF24002E00D128E780225146D203A9
:101AC000114203D06146114200D13300FF241DE7CB
:101AD000FF2400232CE7002CE9D1002B63D0002E3B
:101AE00000D113E79B195A0100D43EE7314A0C009C
:101AF00013400BE7002C1ED1002B2FD1002E4FD00E
:101B000033000D0002E7012655E7002C1FD1002B02
:101B100043D0C94300290BD0FF2839D01B2944DC0E
:101B20001C002027CC40791A8B40591E8B4123433F
:101B30009B19040040E7002B1AD1002E24D18027E6
:101B40000022FF031BE7330004000D00DEE6FF2840
:101B50001ED08024E40449422343DFE7002E00D155
:101B6000D4E69F1B7A0100D437E7F31A0D00CDE6C7
:101B7000FF24002E00D1C9E680225046D203104235
:101B8000A4D060461042A1D133000D00FF24BDE671
:101B90003300FF24BAE601236EE733000400B5E604
:101BA000002700221CE73300B0E60123C0E7C0464F
:101BB000FFFFFF7DFFFFFFFB41024300C20F490A09
:101BC0001B0E00207E2B0DDD9D2B0CDC80200004E5
:101BD0000143952B0ADC9620C31AD9404842002ABB
:101BE00000D108007047034BD018FBE7963B9940A3
:101BF000F4E7C046FFFFFF7F10B5041E27D000F0BA
:101C0000BBFE9E231B1A962B0ADC9622D21A944006
:101C10006402640ADBB26402DB05600A184310BD8B
:101C2000992B17DC9922D21A002A27DD9440220032
:101C3000134C1440510704D00F210A40042A00D04D
:101C40000434620112D4A401640ADBB2E3E7002386
:101C50000024E0E7B9222100D21A91400A00511E67
:101C60008A410521091ACC401443DBE7044B1C4090
:101C70009F23A4011B1A640ADBB2CCE72200D7E73A
:101C8000FFFFFFFBF0B557464546DE464E46E0B542
:101C90000C0398464E00230B87B0070092469B46E4
:101CA000760DCD0F002E6BD06D4B9E4235D080242B
:101CB0005B46420F2404DB0014431C43C3009946D7
:101CC000684BA3469C460023002766440293434684
:101CD0001C035A00DB0F5046240B520D984600D1CE
:101CE00076E05F4B9A426DD08023410F1B040B437B
:101CF0005C49E4008C461C43C3000020624441461A
:101D0000B6186940721C0191944607430F2F00D901
:101D1000B0E0554ABF00D25997465B460343994607
:101D200000D087E000239B46023308270293CEE7CA
:101D300042460192022867D0032800D10EE2012812
:101D400000D062E10023002400229946019901405D
:101D5000CDB2002112030B0D120B1B051343434A96
:101D6000240513401C436400ED0764082C434846D7
:101D7000210007B03CBC90469946A246AB46F0BD58
:101D8000034399464FD05B46002B00D189E158466A
:101D900000F0F2FD03000B3B1C2B00DD7AE11D225D
:101DA000D31A3A0001005C46DA4008398C4013002F
:101DB0008F4023439B46B94600232D4E0027361AF9
:101DC000029384E7534623432AD10024022096E756
:101DD0005346234320D0002C00D157E1200000F0CF
:101DE000CBFD03000B3B1C2B00DD49E11D21CB1A71
:101DF00051460200D9405346083A944093400C4360
:101E00001B4A121A00207AE70125019B144C1D4041
:101E10000023002299469CE70024002201206EE75F
:101E2000534603206BE700239B460133042700261B
:101E300002934CE7032381460C27029347E7802255
:101E40000023002512039946054C82E75C464B4669
:101E500002986FE75C464B46019502986AE7C046D8
:101E6000FF07000001FCFFFF843F0000FFFF0F8021
:101E70000DFCFFFF4A464946170C1A0C1B041B0CAD
:101E800008041900000C41431500884619007D43E1
:101E90007943039589462900150045434D44029531
:101EA00045462D0CAA46029D5544A94506D98A46A9
:101EB000802149028946CA4451460391290C049164
:101EC000414609042D04090C88462900250C2404E8
:101ED0004144240C05912100414388462100794367
:101EE0008A466843414650448146080C48446F4343
:101EF000824503D98021490289464F44010C894615
:101F000039004944029141460F0404993F0C884628
:101F10000004C01980444146049159460F0C09043D
:101F2000090C884659438A4639005143894641463F
:101F30004A435146090C8B467B43D2185A4493427C
:101F400003D980235B029B46D94451460904090CFE
:101F50008A46414661437C43130C12044B4452446D
:101F6000A1468A463C0041466C434D4351464D4490
:101F70000F0C7D19A94503D98021490288464444A4
:101F8000049F0399B84641448B46834580414142B2
:101F90008846514608042F04000C3F185846029901
:101FA00010188946904292414F44BA46524299468F
:101FB0009346C244D144CB448F42BF41C24589417C
:101FC00099459B41934592417F4249422D0C524293
:101FD0000F435B4213437F19FF185B463C19DB0D2F
:101FE000059A64021C43430213435D1EAB415A46EB
:101FF000C00D034352021343E20156D501205A0893
:1020000003401343E207134364085A48604400281E
:102010004DDD5A0709D00F221A40042A05D01A1D97
:102020009A429B415B42E4181300E20104D58020F0
:10203000514AC00014406044504A904200DDE3E63B
:102040000125DB0862071A436402019B9146220BBB
:102050004405640D1D407CE680225946120311425E
:1020600008D0144206D122431203120B454699466A
:10207000434C6EE65B461A431203120B404C68E673
:1020800003005446283B9C400023B9E600F074FC52
:102090002030A6E60300283B9F400023BB4699461C
:1020A0008AE600F069FC203074E6B446ADE701250D
:1020B0002A1A382A06DD019B00241D400023002235
:1020C000994646E61F2A21DC20252000AD1A1E0075
:1020D000AB40A840D6405D1EAB4130431843D440CE
:1020E000430709D00F230340042B05D00300181D1C
:1020F00098429B415B42E418230221D50125019BB4
:1021000001241D4000230022994622E61F252100BC
:102110006D42281AC1400800202A1DD05F35AA1A36
:10212000944023435C1EA341072503431D40002226
:10213000002D09D00F2200241A401800042AD6D1FD
:10214000030065076402220BDB082B430125994637
:10215000019B00241D40FCE50024E2E780220125CC
:102160001203224301991203120B0D409946044CAD
:10217000EFE5C046FF030000FFFFFFFEFE07000083
:10218000FF070000F0B54646D6464F460C03C0B5E3
:10219000CD0F4E00610A440F0C43C1005800400DA2
:1021A00084468A460F001903500F490A0143C64866
:1021B000760DA846DB0FD200844500D1D8E001207F
:1021C0004340AB4200D1A6E06046351A002D00DC4A
:1021D00005E1002810D10B00134300D1D7E06B1E9E
:1021E000002B00D04BE153469F1ABA458041641A38
:1021F0004042241A01261EE0B34B9E4248D0802361
:102200001B041943382D00DD19E11F2D00DD4CE1C1
:1022100020230F005B1B10009A409F40E840531E94
:102220009A41E940074317435346DF1B611ABA45F9
:10223000A44164420C1B230200D4C5E06402650A79
:10224000002D00D1F6E0280000F096FB0300083BCB
:102250001F2B00DDE9E020223C00D21A9D40D44033
:102260009F4025439E4200DDDBE09E1B731C1F2B1D
:1022700000DD0AE120223800D21A290097402C0004
:102280009140D8407A1E9741DC40002601430F431D
:102290007B0709D00F233B40042B05D03B1DBB42DD
:1022A000BF417F42E4191F00230225D5864B01362A
:1022B0009E4200D1AFE0854B01251C40434662079A
:1022C000FF08640276051743240B760D1D4000219C
:1022D0002403230B0C0D7E4A24051C4314403305B4
:1022E00023435B00ED075B082B43380019001CBC3F
:1022F00090469946A246F0BD012543466207FF0875
:102300001743E4081D40704B9E4236D024037605E7
:10231000240B760DDBE76346F31A002B00DC94E018
:102320006046002835D068488642B1D080273F04F7
:102330003943382B00DCFDE00A43170000217A1EE8
:102340009741574457458041091944420C192302CB
:102350003AD55D4B01369E4200D14BE101225B4BE9
:102360001C407B0817401F43E207174364088FE7B0
:102370000800104300D024E721E723003B4300D1AD
:10238000B9E18022120314432403240B9FE72E009B
:102390007EE70800104300D1CAE0581E844600289A
:1023A00000D0E7E05244524580416418404224186E
:1023B00017000126230207D50226CFE764462C43E7
:1023C00000D1B3E12C0067467B0700D062E76307CA
:1023D000FF081F4301254346E4081D4093E7002DF5
:1023E00078D1751C6D056D0D012D00DCF2E05046B5
:1023F000801A8245BF41651A7F42ED1B8446280240
:1024000000D48CE05046171ABA4292410C1B554238
:10241000651B984614E70125434600241D4000270C
:1024200055E72A4CF61A2C4032E73D002838854003
:10243000002717E7380000F09FFA203006E70A432C
:10244000170000217A1E9741EEE6002B00D0E5E050
:10245000731C9C465B055B0D012B00DC9FE01A4B57
:102460009C4500D1C5E05244524580416418404229
:102470002418E707520817436408664608E712481D
:10248000854200D185E01D00BCE629001F3EF140D9
:10249000202B00D17FE04022D31A9D402F437D1E88
:1024A000AF4100240F4300268EE72B000F00203B96
:1024B000DF40202D71D040235D1BA9400A43511EEF
:1024C0008A4100211743AFE6FF070000FFFF7FFFAF
:1024D000FFFF0F80002E3ED0B34EB44545D080267E
:1024E00036046D423443382D00DDA8E01F2D00DD99
:1024F0001FE1202627005046761BB740E8400743DF
:102500005046B040461EB041EC403843171ABA421C
:1025100092410C1B5242A41A664698468BE66446CA
:1025200067462C4300D08BE6002500260027EAE60C
:102530001E00ADE61F2B60DC2027F81A0F00844632
:1025400087401000D840074360468240501E8241B9
:10255000D9401743F5E626005046064305D0ED4323
:10256000002DD3D0904EB445BDD10C001700664667
:1025700098468DE68C4883420BD06346D9E6002D01
:1025800000D096E00800104300D1E2E00C001700F4
:102590009846854E7CE6002580E700218EE72300E3
:1025A00050460343002E00D0A8E0002B00D1DEE00F
:1025B0000B00134300D16BE652445245804164182E
:1025C000404224181700230200D4FDE6774B6646EC
:1025D0001C405DE6250050460543002ECFD1002D5E
:1025E0004FD10C00144300D1A0E00C001700984616
:1025F0004EE666460024002785E61F000800203FBF
:10260000F8400700202B00D18EE04020C31A9940EB
:102610000A43511E8A410021174392E6002E14D12D
:1026200026005046064362D0DB43002B5CD187185E
:102630009742924164185242A418664687E6504673
:102640002043441EA041002460E7574EB4454ED0BD
:10265000802636045B423443382B00DD7FE01F2B9D
:1026600000DD8BE0202627005046F61AB740D84000
:1026700007435046B040461EB0410743DC40BF18F8
:10268000D6E70D00154300D102E65046801A824578
:10269000BF41651A7F42ED1B8446280200D48DE6B7
:1026A0005046171ABA4292410C1B5242A41A98463D
:1026B000EEE50D00154300D16BE750466707C008F3
:1026C00007438020E4080003044207D0CD080542F8
:1026D00004D12C009846D70849070F437B0FE4002C
:1026E0001C43FF00304ED3E52F4EB445B4D10C004F
:1026F00017006646CCE500270024E8E5002B39D01A
:102700000B00134300D144E7C0086707074380204C
:10271000E40800030442E1D0CB080342DED1D7082D
:1027200049070F431C00D9E7002171E70025002766
:10273000E9E52E002700203EF740202D2FD040262F
:10274000751BAC4050462043441EA0410024384332
:10275000DCE6802400252403134E0027D3E55046F1
:1027600020430700781E87410024BF1860E70C0053
:1027700017008DE50C0017000B4E89E51E002700A1
:10278000203EF740202B0CD04026F31A9C405046A8
:102790002043441EA04107430024BF1848E70024FB
:1027A000D0E70024F3E7C046FF070000FFFF7FFFEC
:1027B00030B5134D0A034B00120B5B0DC90F0024FB
:1027C000AB4210DD0F4CA3420FDC80240E4D64039E
:1027D0002243ED1A1F2D0BDD0C48C31ADA40544278
:1027E000002900D11400200030BD094BCC18FAE7B5
:1027F000084CE840A44663449A400243EFE7C046D1
:10280000FE0300001D040000330400001304000058
:10281000FFFFFF7FEDFBFFFF10B5041E28D000F087
:10282000ABF8154B154A1B1AD21A1F2A15DD144A8C
:10283000D21A9440002224035B05240B5B0D002177
:10284000100024030A0D240B120522430D4C1B0516
:10285000224013435B00590810BD210091400A003B
:102860000B21081AC4405B052403240B5B0DE6E72B
:10287000002300240022E2E71E04000033040000CD
:1028800013040000FFFF0F808446101C62468C4634
:10289000191C634600E0C0461FB500F0D1F90028BE
:1028A00001D40021C8421FBD10B500F02BF94042F1
:1028B000013010BD10B500F0C3F9002801DB002085
:1028C00010BD012010BDC04610B500F0B9F90028B8
:1028D00001DD002010BD012010BDC04610B500F084
:1028E0004BF9002801DC002010BD012010BDC046BE
:1028F00010B500F041F9002801DA002010BD0120D8
:1029000010BDC0468446081C6146FFE71FB500F0B5
:10291000B7F8002801D40021C8421FBD10B500F04F
:1029200049F84042013010BD10B500F0A9F8002868
:1029300001DB002010BD012010BDC04610B500F025
:102940009FF8002801DD002010BD012010BDC04609
:1029500010B500F055F8002801DC002010BD012062
:1029600010BDC04610B500F04BF8002801DA002079
:1029700010BD012010BDC0461C2101231B0498423C
:1029800001D3000C10391B0A984201D3000A083900
:102990001B09984201D30009043902A2105C4018B7
:1029A0007047C0460403020201010101000000005B
:1029B0000000000070B5420045024E024C00C30FFB
:1029C0006D0A120E760A240EC90F0120FF2A06D0C6
:1029D000FF2C03D0A24201D1B54206D070BD002D1C
:1029E000FCD1FF2CFAD1002EF8D18B4206D0012069
:1029F000002AF3D12800451EA841EFE70020EDE7AB
:102A0000F0B5420045024C02C30F48006D0A120E99
:102A1000640A000EC90FFF2A1ED0FF2821D0002A09
:102A20000AD16E426E41F6B200280FD1002C0DD1B2
:102A30000020002D09D005E0002801D1002C01D094
:102A40008B4211D0012158420843F0BD002EF7D02F
:102A5000012001390843F8E7002DDED00220404272
:102A6000F3E7002CDBD0F9E78242EBDC04DBA54284
:102A7000E8D80020A542E8D20121581E0843E4E727
:102A8000F0B542004D024C004602760A120EC30F0A
:102A90006D0A240EC90FFF2A16D0FF2C18D0002A69
:102AA0000AD170427041C0B2002C15D0002805D068
:102AB000012001390843F0BD002C13D0994214D0F5
:102AC00001205B421843F6E70220002EF3D1E4E731
:102AD0000220002DEFD1E2E7002DE7D10020002EEB
:102AE000E9D0EDE7002DE9D1EAE7A24206DCDFDB21
:102AF000AE4203D80020AE42DAD3DCE701204942DF
:102B00000843D8E7F0B54F464646D6465C00C0B508
:102B10001F03DB0F9A46174B0E034D008446804679
:102B2000360B6D0DC90F91463F0B640D01209D4280
:102B300008D09C4201D0A5420BD01CBC90469946BF
:102B4000A246F0BD63463343F7D1AC42F5D13A43D8
:102B5000F3D10120BE42F0D1C845EED1514507D096
:102B6000002DEAD163461E433000461EB041E4E723
:102B70000020E2E7FF070000F0B54546DE46574675
:102B80004E46E0B51F033D0B2C4F0E034C00AB46E9
:102B90005D008446360B640DC90F90466D0DDB0F4A
:102BA000BC422AD0254FBD422DD0002C0FD130433E
:102BB0000700814678427841C0B2002D17D15F46A8
:102BC0003A4314D14B460020002B0AD006E0002DDA
:102BD00002D15846024301D0994218D048420121FF
:102BE00008433CBC90469946A246AB46F0BD00283F
:102BF000F2D00120013B1843F3E737000743D1D05F
:102C000002204042EDE75F461743CED0F8E7AC42E2
:102C1000E4DC03DA481E01210843E2E75E45DDD823
:102C200006D000205E45DCD20123481E1843D8E7B9
:102C3000C445D3D80020C445F6D3D2E7FF0700002F
:102C4000F0B54E464546DE4657465C00E0B51F03EC
:102C5000DB0F99462A4B0E034D00C90F8446360BF5
:102C60006D0D8B4690463F0B640D9D4220D0244B4A
:102C70009C4222D0002D12D1304343424341DBB26B
:102C8000002C1FD0002B0CD04B460120013B0343EE
:102C900018003CBC90469946A246AB46F0BD002CBD
:102CA00016D0CB4517D05B46594201230B43EFE7C3
:102CB000310002230143EBD1D9E73900022311434C
:102CC000E6D1D7E73A43DDD100230028E0D0EAE798
:102CD0003A43E6D1E7E7A542E5DC05DBBE42E2D8B0
:102CE00007D00023BE42D3D25946012301390B43FA
:102CF000CEE7C445D7D80023C445F5D3C8E7C046BE
:102D0000FF07000070B500260C4D0D4C641BA4108D
:102D1000A64209D1002601F0A1F90A4D0A4C641B14
:102D2000A410A64205D170BDB300EB5898470136F8
:102D3000EEE7B300EB5898470136F2E76840000031
:102D400068400000684000006C40000003008218EA
:102D5000934200D1704719700133F9E70FB40B4B60
:102D600013B51C68002C05D0A369002B02D12000EC
:102D700000F0F2FA05AB049AA1682000019300F07C
:102D8000C7FC16BC08BC04B01847C046140000209D
:102D900070B505000E00002804D08369002B01D116
:102DA00000F0DAFAAB69AC68002B02D1280000F021
:102DB000D3FA244B9C420FD16C68A3891B0702D520
:102DC0002369002B20D12100280000F057F90028AA
:102DD0001AD00120404270BD1B4B9C4201D1AC680F
:102DE000EBE71A4B9C42E8D1EC68E6E7013B013681
:102DF000A360002B04DAA269934216DB0A2914D0DF
:102E000023685A1C226019703178A3680029EDD11B
:102E1000013BA360002B0FDA22000A31280000F0EA
:102E2000D7F8431CD5D00A20D5E72200280000F0AF
:102E3000CFF8431CE8D1CCE70A2023685A1C226053
:102E40001870C8E7E83F000008400000C83F0000D5
:102E500010B5034B01001868FFF79AFF10BDC0467C
:102E6000140000204A424A41802310B55200DB0082
:102E700000F002F810BD0000F0B51D004F4B85B00A
:102E80001E6804000F000092002E05D0B369002BCD
:102E900002D1300000F060FA494B9C4250D1746876
:102EA000009B022B05D0012B00D984E0002D00DA15
:102EB00081E02100300000F0E1F9616B002908D0C9
:102EC00023004433994202D0300000F051FB00232C
:102ED00063630023A3616360A3891B0603D5216993
:102EE000300000F045FBA389364A1340A381009BC4
:102EF000022B5AD003AB02AA2100300000F0C2FA24
:102F0000A3891843A081002D24D1029D280000F040
:102F100025FB0195071E42D1029B0193AB4239D19B
:102F2000012040420223A2891343A3810023A3600E
:102F300023004733236023610123636105B0F0BDA3
:102F4000214B9C4201D1B468AAE7204B9C42A7D1F7
:102F5000F468A5E7002FD9D0B369002B02D1300067
:102F600000F0FAF9009B012B03D1A389009A1A43C0
:102F7000A2810820A389276027616561184018D0C5
:102F8000012018400023984211D06D42A360A56132
:102F90001800D3E7019800F0E1FA071EC0D08023A3
:102FA000A289019D1343A381D6E70020BAE7A5605B
:102FB000C4E7A060C2E701204042BFE71400002040
:102FC000E83F00005CF3FFFF08400000C83F00003E
:102FD000F8B505000E001400002804D08369002B0A
:102FE00001D100F0B9F9224B9C422DD16C68A36944
:102FF000A360A3891B0731D52369002B2ED023683A
:103000002269F7B2981A6369F6B2984205DB21008B
:10301000280000F033F9002826D1A3680130013BD5
:10302000A36023685A1C22601F706369984204D011
:10303000A389DB071AD50A2E18D12100280000F039
:103040001DF9002812D00FE00A4B9C4201D1AC6858
:10305000CDE7094B9C42CAD1EC68C8E721002800A3
:1030600000F00CF80028CAD0012676423000F8BDE6
:10307000E83F000008400000C83F0000364B70B534
:103080001D6806000C00002D05D0AB69002B02D195
:10309000280000F061F9314B9C420FD16C680C2381
:1030A000E25E93B219072DD4D90611D40923012069
:1030B000336037331343A381404270BD284B9C4299
:1030C00001D1AC68EBE7274B9C42E8D1EC68E6E71E
:1030D0005B0713D5616B002908D023004433994264
:1030E00002D0300000F044FA002363632422A38955
:1030F0009343A38100236360236923600823A2898B
:103100001343A3812369002B0BD1A0218022A38923
:10311000890092000B40934203D02100300000F060
:10312000D9F90123A289134011D00023A360636958
:103130005B42A361002023698342BED10C23E25E7F
:103140001306BAD540231343A3810138B5E792078C
:1031500000D46369A360EDE714000020E83F00009D
:1031600008400000C83F0000F7B58A8905000C0040
:10317000130760D44B68002B04DC0B6C002B01DCC4
:103180000020FEBDE76A002FFAD000232E682B60D6
:1031900080235B011A4034D0606DA3895B0706D59C
:1031A0006368C01A636B002B01D0236CC01A020045
:1031B000216A00232800E76AB847A189431C06D189
:1031C0002B681D2B31D82C4ADA40D3072DD500238C
:1031D000636023692360CB0405D5431C02D12B68AF
:1031E000002B00D16065616B2E600029C8D02300E0
:1031F0004433994202D0280000F0BAF900206063FD
:10320000BFE70123216A2800B847431CC5D12B68BA
:10321000002BC2D01D2B01D0162B01D12E60AFE7A1
:103220004023A2891343A381ABE740230B43012032
:10323000A3814042A5E70F69002FA1D00B680F6062
:10324000DB1B01930023920700D14B69A360019B14
:10325000002B00DC94E7019B3A00216A2800A66A53
:10326000B047002803DC4023A2891343DFE7019B1A
:103270003F181B1A0193EAE7010040200B6970B563
:1032800005000C00002B01D1002070BD002804D0E7
:103290008369002B01D100F05FF80B4B9C4209D1F0
:1032A0006C680C22A35E002BEED021002800FFF7F3
:1032B0005BFFEAE7054B9C4201D1AC68F1E7044BA8
:1032C0009C42EED1EC68ECE7E83F000008400000CB
:1032D000C83F000010B5024900F0B2F810BDC0466A
:1032E0007D320000002310B504000360436083605A
:1032F00081814366C28103614361836119000822B1
:103300005C30FFF723FD054B24626362044BA3622C
:10331000044BE362044B236310BDC0467D3C0000B8
:10332000A53C0000DD3C0000093D000070B56825AB
:103330004A1E55430E002900743100F063F9041E43
:1033400008D000212A00016046600C30A06068327D
:10335000FFF7FCFC200070BD836913B50400002B4F
:1033600028D18364C3640365134B144A1B688262CB
:103370000193984201D101238361200000F020F8DD
:103380006060200000F01CF8A060200000F018F839
:103390000022E06004216068FFF7A4FF01220921F8
:1033A000A068FFF79FFF02221221E068FFF79AFF53
:1033B0000123A36113BDC046C43F0000D532000005
:1033C000F8B51E4B07001E68B369002B02D1300010
:1033D000FFF7C2FF4836B4687368013B04D5336811
:1033E000002B07D03668F6E70C22A55E002D0DD025
:1033F0006834F2E704213800FFF798FF30600028B6
:10340000F0D10C2304003B602000F8BD0123200014
:103410005B42E3810233A38165662560A560656038
:1034200025616561A561082229005C30FFF78EFCEB
:103430006563A563A564E564E6E7C046C43F000094
:10344000F7B504000700002601914834002C01D193
:103450003000FEBD6368A5680093009B013B0093AC
:1034600001D52468F2E7AB89012B08D90E22AB5EA7
:10347000013304D029003800019B98470643683582
:10348000EBE7000070B50E001D000E23C95E90B082
:103490001400002907DA00232B60B3891B0611D41E
:1034A0008023DB000FE001AA00F05AFC0028F2DBC9
:1034B000F022029B12021340054A9B185A425341C4
:1034C0002B60EDE740230020236010B070BDC046A4
:1034D00000E0FFFFF7B502268B8905000C003342A0
:1034E00006D0230047332360236101236361F7BDC6
:1034F00001AB6A46FFF7C6FF00990700280000F0FD
:1035000081F8002808D10C22A35E9A05EFD403228B
:1035100093431E43A681E4E70F4BAB628023A2894D
:1035200020601343A381009B20616361019B002BFA
:103530000DD00E23E15E280000F024FC002806D008
:103540000322A38993431A0001231343A381A08973
:103550003843A081CBE7C046D532000010B5034BFD
:103560000100186800F04EF810BDC046140000209D
:1035700070B50500002910D00C1F2368002B00DA5D
:10358000E418280000F02FFC1D4A1368002B05D119
:1035900063601460280000F027FC70BDA34209D9C5
:1035A000216860188342F3D118685B684118216074
:1035B000EEE713005A68002A01D0A242F9D919682F
:1035C0005818A0420BD12068091858181960824277
:1035D000E0D110685268411819605A60DAE7A042D9
:1035E00002D90C232B60D5E721686018824203D1F1
:1035F000106852684118216062605C60CAE7C0468A
:10360000C8000020032370B5CD1C9D43083506007B
:103610000C2D1ED20C25A9421DD8300000F0E3FB72
:10362000254A14682100002919D1244C2368002B55
:1036300003D1300000F010FB20602900300000F0C2
:103640000BFB431C2CD10C233000336000F0CCFB6F
:1036500003E0002DDFDA0C233360002070BD0B681F
:103660005B1B1AD40B2B03D90B60CC18256003E02D
:103670008C420ED163681360300000F0B5FB20006F
:1036800007220B30231D9043C31AE7D05A42E25061
:10369000E4E74B6863600C00EEE70C004968C2E7A2
:1036A0000323C41C9C43A042E0D0211A300000F048
:1036B000D3FA431CDAD1C6E7C8000020CC000020B2
:1036C000936810B5013B9360002B05DA9469A3421F
:1036D00008DBCBB20A2B05D01368581C1060197098
:1036E000C8B210BDFFF774FCFBE7F8B506000F0089
:1036F0001400D518AC4201D1002007E021783A002F
:103700003000FFF7DDFF0134431CF3D1F8BD0000AA
:10371000F0B59FB006000F0014000593002804D0F8
:103720008369002B01D1FFF717FE7F4B9F425CD1CD
:103730007768BB891B0762D53B69002B5FD00023EC
:1037400006AD6B6120336B761033AB760294029C2E
:103750002378002B5DD1029BE31A04930DD0049BC8
:10376000029A39003000FFF7C0FF431C00D1CCE0C3
:103770006A69049B944663446B612378002B00D1F3
:10378000C3E00122002352426A6002A95432521857
:1037900001342B60EB60AB601370AB6521780522C0
:1037A000624800F015FB631C9C46002835D129684F
:1037B000CB0604D5532302AA20309B1818700B07A0
:1037C00004D553232B2002AA9B18187023782A2B88
:1037D0002CD000200A21099B2278303A092A00D8EF
:1037E0006BE000282AD0099328E0514B9F4201D179
:1037F000B7689EE74F4B9F429BD1F76899E7390026
:103800003000FFF73BFC002899D0012040421FB058
:10381000F0BD252B9FD001349AE7444B2968C01A8C
:10382000012383400B432B606446B7E7059B181DBB
:103830001B680590002B3ADB0993644623782E2BF6
:103840000BD16378621C2A2B3FD1059B02341A1DD1
:103850001B680592002B35DB07932178032236483D
:1038600000F0B6FA002807D0334B2A68C01A40236C
:10387000834013432B6001342178631C06222F48B8
:103880000293297600F0A4FA002844D02C4B002B98
:103890002FD12968059B0722C90528D59B1893437A
:1038A000083305936B69039A9B186B614FE75B4282
:1038B000EB6002230B432B60BFE74B4301349B18A3
:1038C000012089E701235B42C6E7002314000A2098
:1038D0001A006B6021783039092903D9002BBCD03C
:1038E0000792BAE74243013452180123F2E7073343
:1038F000D5E705AB00933A00124B2900300000E0F9
:1039000000BF0390039B0133CCD1BB895B0600D57C
:103910007BE70B987BE705AB00933A00094B290046
:10392000300000F07FF8ECE7E83F0000284000009E
:1039300008400000C83F00002E4000003240000058
:1039400000000000EB360000F7B5150001938A680F
:103950000B6900900C00934200DA130022002B60E8
:1039600043321278002A01D001332B6023689B0672
:1039700002D52B6802332B60062723681F4027D00F
:10398000230043331B785A1E93412268920630D499
:103990002200019943320098089EB047431C25D06D
:1039A000062320682A68E16803400025042B03D120
:1039B0008D1AEB43DB171D40A3682269934201DD9A
:1039C0009B1AED180027BD4220D1002010E00137DE
:1039D000E3682A689B1A9F42D2DA22000123193237
:1039E00001990098089EB047431CF0D10120404245
:1039F000FEBD3020E1184331087021005A1C4531CA
:103A00000978A218433202331170C1E72200012362
:103A10001A3201990098089EB047431CE6D001373E
:103A2000D1E70000F0B58BB006920A00433207934D
:103A3000059004920A7E0C00109B6E2A00D18FE044
:103A400017D8632A2CD008D8002A00D199E0582A28
:103A500054D026004236327029E0642A01D0692A07
:103A6000F7D121681A68080623D5111D1960156859
:103A700025E0732A00D188E008D86F2A29D0702A5F
:103A8000E7D1202209680A43226003E0752A20D08A
:103A9000782ADED122007821453211706C4A30E05C
:103AA0000E001A684236111D196013683370012325
:103AB00079E04906D9D5111D19600023D55E002D86
:103AC00003DA2D23049A6D421370624B0A27039385
:103AD0002FE020681968050603D5081D18600D68D9
:103AE00005E04006F9D50D68081D1860ADB2594BC8
:103AF000082703936F2A18D00A2716E045310A7069
:103B0000544A03921A682168101D18601568080647
:103B100022D5CB0702D52023194321601027002D81
:103B200003D1202322689A432260230000224333DA
:103B30001A706368A360002B5CDB04222168914348
:103B40002160002D58D1049E002B64D02600039BD9
:103B500042361B7833705EE04806DAD5ADB2D8E75E
:103B600009681A68080605D5111D1960136862698D
:103B70001A6006E04906F7D5111D19601368A28A7C
:103B80001A800023049E236154E01A68111D1960F5
:103B9000166800216268300000F01AF9002801D090
:103BA000801B6060636823610023049A137041E006
:103BB0002369320006990598079DA847431C43D006
:103BC000236800259B070FD4099BE06898423DDAE3
:103BD00018003BE022000123193206990598079E40
:103BE000B047431C30D00135E368099A9B1A9D42C7
:103BF000F0DBE9E7002DA9D0049E28003900FDF78D
:103C000017FA039B013E5B5C280033703900FDF717
:103C1000D8F9051EF1D1082F09D12368DB0706D595
:103C200063682269934202DC3023013E3370049BB7
:103C30009B1B2361079B09AA00932100069B059803
:103C4000FFF782FE431CB3D1012040420BB0F0BD10
:103C50004A40000039400000002370B5064C0500C2
:103C600008002360FCF774FF431C03D12368002B7A
:103C700000D02B6070BDC046AC05002070B50C00B4
:103C80000E25495F00F0B2F8002803DB636D1B18B6
:103C9000636570BDA389024A1340A381F9E7C0465A
:103CA000FFEFFFFFF8B51F008B8905000C00160021
:103CB000DB0505D50E23C95E0022022300F074F84F
:103CC000A389054A28001340A38132000E23E15E38
:103CD0003B0000F01FF8F8BDFFEFFFFF70B50C00D0
:103CE0000E25495F00F060F8A389421C03D1054A04
:103CF0001340A38170BD802252011343A3816065EC
:103D0000F8E7C046FFEFFFFF10B50E23C95E00F0D5
:103D100015F810BD70B50500080011000022064C12
:103D200022601A00FDF7F8FB431C03D12368002B27
:103D300000D02B6070BDC046AC050020002370B5DC
:103D4000064C050008002360FCF714FF431C03D158
:103D50002368002B00D02B6070BDC046AC0500204E
:103D6000002370B5064C0500080011002360FCF725
:103D700004FF431C03D12368002B00D02B6070BDCF
:103D8000AC050020002370B5064C05000800236038
:103D9000FCF7F8FE431C03D12368002B00D02B60F6
:103DA00070BDC046AC05002070B5050008001100CC
:103DB0000022064C22601A00FCF7E6FE431C03D1E9
:103DC0002368002B00D02B6070BDC046AC050020DE
:103DD000C9B28218904201D10020704703788B420B
:103DE000FBD00130F6E770477047000070B5050062
:103DF000080011000022064C22601A00FDF778FB33
:103E0000431C03D12368002B00D02B6070BDC0463B
:103E1000AC0500202E2E2F68616C2F7372632F6803
:103E2000616C5F6164635F73796E632E6300000091
:103E30002E2E2F68616C2F7372632F68616C5F6325
:103E4000616E5F6173796E632E6300002E2E2F68A2
:103E5000616C2F7372632F68616C5F696F2E6300F2
:103E60002E2E2F68616C2F7372632F68616C5F74E4
:103E7000656D705F73796E632E6300002E2E2F6860
:103E8000616C2F7372632F68616C5F7573617274FC
:103E90005F73796E632E6300000006030000001854
:103EA0001000083F000000000000000000000000BB
:103EB000000000002E2E2F68706C2F6164632F6845
:103EC000706C5F6164632E63000000002E2E2F680B
:103ED000706C2F736572636F6D2F68706C5F7365A4
:103EE00072636F6D2E6300004144432043482025D8
:103EF000753A2025752C2025752C2025752E2575C5
:103F00002025630D0A000000696E697420646F6EDD
:103F1000650D0000616463207265733A2025692C89
:103F20002025690D0A00000074656D703A20257522
:103F30006C0D0A00656E64206C6F6F702025750D26
:103F40000A0000006C170000BC160000BC16000040
:103F5000BA1600005E1700005E170000541700003C
:103F6000BA1600005E170000541700005E1700002C
:103F7000BA16000064170000641700006417000000
:103F8000F4170000741E0000341D0000341D0000F2
:103F9000301D00004C1E00004C1E00003E1E0000A4
:103FA000301D00004C1E00003E1E00004C1E000094
:103FB000301D0000541E0000541E0000541E00005E
:103FC0005820000018000020000000000000000041
:103FD00000000000000000000000000000000000E1
:103FE00000000000000000000000000000000000D1
:103FF00000000000000000000000000000000000C1
:1040000000000000000000000000000000000000B0
:1040100000000000000000000000000000000000A0
:104020000000000000000000232D302B2000686CF1
:104030004C006566674546470030313233343536CB
:104040003738394142434445460030313233343504
:10405000363738396162636465660000F8B5C0467A
:10406000F8BC08BC9E467047E5000000F8B5C046A5
:0C407000F8BC08BC9E467047BD00000074
:10407C000C0100208C0500209C000020AC000020CE
:10408C00B40000201800002000000000E83F0000F1
:10409C0008400000C83F00000000000000000000C5
:1040AC000000000000000000000000000000000004
:1040BC0000000000000000000000000000000000F4
:1040CC0000000000000000000000000000000000E4
:1040DC0000000000000000000000000000000000D4
:0840EC000000000000000000CC
:00000001FF
